:020000040800F2
:1000000000500020917D0008F17D0008F17D00087E
:10001000F17D0008F17D0008F17D0008000000007E
:10002000000000000000000000000000F17D00085A
:10003000F17D000800000000F17D0008975A0008DB
:10004000F17D0008F17D0008F17D0008F17D0008D8
:10005000F17D0008F17D0008895B00088F5B0008D6
:10006000955B00089B5B0008A15B0008F17D000820
:10007000F17D0008F17D0008F17D0008F17D0008A8
:10008000F17D0008F17D0008F17D0008A17A0008EB
:10009000957A0008F17D0008F17D0008A75B000853
:1000A000F17D0008CD4D0008F17D0008E14D00080C
:1000B000E54D0008F94D00080D4E00080D1D000823
:1000C000191D0008251D0008311D0008F17D0008DC
:1000D000F17D00087964000891640008AD640008AF
:1000E000BD5B0008F17D0008A57A00080000000053
:1000F0000000000000000000000000000000000000
:0C01000000000000000000005FF808F1A3
:10010C00034613F8012B002AFBD1181A013870474B
:10011C0080F0004002E000BF81F0004142001FBFB0
:10012C005FEA410392EA030F7FEA226C7FEA236CB9
:10013C006AD04FEA1262D2EB1363C1BFD2184140AE
:10014C0048404140B8BF5B42192B88BF704710F044
:10015C00004F40F4000020F07F4018BF404211F0E7
:10016C00004F41F4000121F07F4118BF494292EA4F
:10017C00030F3FD0A2F1010241FA03FC10EB0C007B
:10018C00C3F1200301FA03F100F0004302D5494208
:10019C0060EB4000B0F5000F13D3B0F1807F06D3B5
:1001AC0040084FEA310102F10102FE2A51D2B1F1AD
:1001BC00004F40EBC25008BF20F0010040EA0300A2
:1001CC007047490040EB0000013A28BFB0F5000F22
:1001DC00EDD2B0FA80FCACF1080CB2EB0C0200FAD8
:1001EC000CF0AABF00EBC25052421843BCBFD04027
:1001FC001843704792F0000F81F4000106BF80F4A1
:10020C0000000132013BB5E74FEA41037FEA226C63
:10021C0018BF7FEA236C21D092EA030F04D092F02E
:10022C00000F08BF0846704790EA010F1CBF002062
:10023C00704712F07F4F04D1400028BF40F00040BF
:10024C00704712F100723CBF00F50000704700F0DF
:10025C00004343F0FE4040F4000070477FEA226206
:10026C0016BF08467FEA23630146420206BF5FEAD7
:10027C00412390EA010F40F4800070474FF00003D7
:10028C0004E000BF10F0004348BF40425FEA000C9E
:10029C0008BF704743F0964301464FF000001CE046
:1002AC0050EA010208BF70474FF000030AE000BF9C
:1002BC0050EA010208BF704711F0004302D54042DA
:1002CC0061EB41015FEA010C02BF8446014600204C
:1002DC0043F0B64308BFA3F18053A3F50003BCFA67
:1002EC008CF2083AA3EBC25310DB01FA02FC634414
:1002FC0000FA02FCC2F12002BCF1004F20FA02F21B
:10030C0043EB020008BF20F00100704702F120020D
:10031C0001FA02FCC2F1200250EA4C0021FA02F26E
:10032C0043EB020008BF20EADC7070474FF0FF0C73
:10033C001CEAD0521EBF1CEAD15392EA0C0F93EA6E
:10034C000C0F6FD01A4480EA010C400218BF5FEA10
:10035C0041211ED04FF0006343EA501043EA511183
:10036C00A0FB01310CF00040B1F5000F3EBF49007D
:10037C0041EAD3715B0040EA010062F17F02FD2A81
:10038C001DD8B3F1004F40EBC25008BF20F0010064
:10039C00704790F0000F0CF0004C08BF49024CEA7B
:1003AC00502040EA51207F3AC2BFD2F1FF0340EA0D
:1003BC00C250704740F400004FF00003013A5DDC7E
:1003CC0012F1190FDCBF00F000407047C2F10002BF
:1003DC00410021FA02F1C2F1200200FA02FC5FEAAC
:1003EC00310040F1000053EA4C0308BF20EADC70F6
:1003FC00704792F0000F00F0004C02BF400010F468
:10040C00000F013AF9D040EA0C0093F0000F01F014
:10041C00004C02BF490011F4000F013BF9D041EA36
:10042C000C018FE70CEAD15392EA0C0F18BF93EA38
:10043C000C0F0AD030F0004C18BF31F0004CD8D162
:10044C0080EA010000F00040704790F0000F17BFE9
:10045C0090F0004F084691F0000F91F0004F14D02F
:10046C0092EA0C0F01D142020FD193EA0C0F03D187
:10047C004B0218BF084608D180EA010000F000408A
:10048C0040F0FE4040F40000704740F0FE4040F465
:10049C00400070474FF0FF0C1CEAD0521EBF1CEA04
:1004AC00D15392EA0C0F93EA0C0F69D0A2EB030222
:1004BC0080EA010C49024FEA402037D04FF08053BC
:1004CC0043EA111143EA10130CF000408B4238BF81
:1004DC005B0042F17D024FF4000C8B4224BF5B1A8F
:1004EC0040EA0C00B3EB510F24BFA3EB510340EADD
:1004FC005C00B3EB910F24BFA3EB910340EA9C008B
:10050C00B3EBD10F24BFA3EBD10340EADC001B01FA
:10051C0018BF5FEA1C1CE0D1FD2A3FF650AF8B429E
:10052C0040EBC25008BF20F0010070470CF0004CAB
:10053C004CEA50207F32C2BFD2F1FF0340EAC250D6
:10054C00704740F400004FF00003013A37E792F097
:10055C00000F00F0004C02BF400010F4000F013AF5
:10056C00F9D040EA0C0093F0000F01F0004C02BFF0
:10057C00490011F4000F013BF9D041EA0C0195E759
:10058C000CEAD15392EA0C0F08D142027FF47DAFF2
:10059C0093EA0C0F7FF470AF084676E793EA0C0FE2
:1005AC0004D14B023FF44CAF08466EE730F0004CE0
:1005BC0018BF31F0004CCAD130F000427FF45CAF70
:1005CC0031F000437FF43CAF5FE700BF4FF0FF3CDE
:1005DC0006E000BF4FF0010C02E000BF4FF0010C31
:1005EC004DF804CD4FEA40024FEA41037FEA226CFA
:1005FC0018BF7FEA236C11D001B052EA530C18BF1C
:10060C0090EA010F58BFB2EB030088BFC81738BF80
:10061C006FEAE17018BF40F0010070477FEA226C6E
:10062C0002D15FEA402C05D17FEA236CE4D15FEA6A
:10063C00412CE1D05DF8040B704700BF844608469E
:10064C006146FFE70FB5FFF7C9FF002848BF10F15F
:10065C00000F0FBD4DF808EDFFF7F4FF0CBF0120A4
:10066C0000205DF808FB00BF4DF808EDFFF7EAFF2E
:10067C0034BF012000205DF808FB00BF4DF808EDE9
:10068C00FFF7E0FF94BF012000205DF808FB00BFDE
:10069C004DF808EDFFF7D2FF94BF012000205DF864
:1006AC0008FB00BF4DF808EDFFF7C8FF34BF012071
:1006BC0000205DF808FB00BF4FEA40024FEA4103FF
:1006CC007FEA226C02D15FEA402C08D17FEA236CCE
:1006DC0002D15FEA412C02D14FF0000070474FF07D
:1006EC000100704742000ED2B2F1FE4F0BD34FF017
:1006FC009E03B3EB126209D44FEA002343F000438C
:10070C0023FA02F070474FF00000704712F1610FAE
:10071C0001D1420202D14FF0FF3070474FF0000080
:10072C00704700BF10B5054C237833B9044B13B197
:10073C000448AFF300800123237010BDFC0100209E
:10074C00000000004C8A000808B5034B1BB103499C
:10075C000348AFF3008008BD000000000002002039
:10076C004C8A000808B5044B00211860034801F0BE
:10077C0043F8002008BD00BF180200205C020020D6
:10078C00F8B5054616460C46D1B10F4B0F48196803
:10079C0000F046FE29460D4800F09BFE00250B4F4D
:1007AC00A54207DB094800F061FF003818BF0120A3
:1007BC004042F8BD715D384600F08BFE0135EFE725
:1007CC004FF0FF30F5E700BF180200205C0200205C
:1007DC00F8B5064615460C4611B94FF0FF30F8BD7A
:1007EC000E4F0F48396800F01BFE31460C4800F0E4
:1007FC0070FE0B4800F03AFF22463968084800F0BA
:10080C0030FF8442E9D1064E2C44304600F0B6FD50
:10081C0005F8010BA542F8D10020E0E718020020F2
:10082C005C0200202DE9F843C02007F0EBFCDFF858
:10083C00C090DFF8C080C9F80000C12007F0E2FCCE
:10084C00C8F80000C22007F0DDFC2B4E2B4F3060A7
:10085C00C32007F0D7FC3860C42007F0D3FC284C29
:10086C00284D2060C52007F0CDFCD9F80030286059
:10087C003BB901211E2007F089FC2349234807F0CE
:10088C00DDFAD8F800303BB901211E2007F07EFCC0
:10089C001F491E4807F0D2FA3B683BB901211E20C4
:1008AC0007F074FC1B49194807F0C8FA33683BB9C8
:1008BC0001211E2007F06AFC1749144807F0BEFA04
:1008CC002B683BB901211E2007F060FC13490F482F
:1008DC0007F0B4FA23684BB901211E2007F056FC2F
:1008EC00BDE8F8430E49094807F0A8BABDE8F883FB
:1008FC00300200202C0200202402002028020020BC
:10090C001C02002020020020648A0008A804002099
:10091C00778A00088C8A0008A18A0008B78A000828
:10092C00C98A000810B54FF416512A4805F0A2FEEA
:10093C00294800F08BFB0021C02007F0C9FB0021E7
:10094C00C12007F0C5FB0021C22007F0C1FB00212C
:10095C00C32007F0BDFB0021C42007F0B9FB002128
:10096C00C52007F0B5FB01211E2007F0B1FB0121CA
:10097C00122007F0ADFB6B21184800F005F9174861
:10098C0000F030F9164C2060013004D115491148A3
:10099C0007F054FAFEE70221104800F0F8F8206046
:1009AC00013004D110490B4807F048FAFEE7022148
:1009BC000A4800F021F92060013004D10B490548A8
:1009CC0007F03CFAFEE70A490248BDE8104007F080
:1009DC0035BA00BFA80400203402002058020020C1
:1009EC0054020020DB8A0008F58A0008118B0008ED
:1009FC002B8B000830B50121122085B007F0C6FB07
:100A0C00504800F046F9504C2060013004D14F4959
:100A1C004F4807F013FAFEE70DF10A0302AA0DF195
:100A2C000601484800F04DF94A492060484807F053
:100A3C0005FA0A22BDF90610454807F040FA464966
:100A4C00434807F0E1F90A22BDF90810404807F0C5
:100A5C0036FA41493E4807F0D7F90A22BDF90A1087
:100A6C003B4807F02CFA3C49394807F0E7F9354880
:100A7C0000F01BF9431C206004D13849344807F0BE
:100A8C00DDF9FEE7012813D12E4803A900F026F961
:100A9C00013004D132492E4807F0D0F9FEE7314934
:100AAC002B4807F0CBF902220399294807F09AFA50
:100ABC0000242D4DA1B20322284600F029FCFFF79B
:100ACC00B1FE012007F0E0FB0134284600F012FBD8
:100ADC00EA2CEFD100211E2007F058FB0024224DF8
:100AEC00A1B24FF40072284600F012FC012007F06E
:100AFC00CBFB0134FFF796FE284600F0FBFAEA2CFC
:100B0C00EED100211E2007F041FB0024164DA1B2AE
:100B1C004FF40032284600F0FBFB012007F0B4FB39
:100B2C000134FFF77FFE284600F0E4FAEA2CEED100
:100B3C0000211E2007F02AFBFA2007F0A5FB05B0C8
:100B4C0030BD00BF5802002054020020388B000832
:100B5C00A80400205D8B0008D98B0008858B000849
:100B6C00A38B0008C48B0008340200205223C62239
:100B7C00EA21014800F0B6BB34020020014800F025
:100B8C0057BA00BF340200200846FFF7EBBD08B58A
:100B9C000A2924D8DFE801F0060F11131517191BC9
:100BAC001D1F2100002000F0B1F801304FF0FF3084
:100BBC0018BF002008BD0120F5E70220F3E7032051
:100BCC00F1E70420EFE70520EDE70620EBE707202F
:100BDC00E9E70820E7E70920E5E70A20E3E74FF01B
:100BEC00FF30E7E708B5012000F00FF901304FF0B6
:100BFC00FF3018BF002008BD10B501200C4600F0D6
:100C0C0032F9013002D14FF0FF3010BD012000F05D
:100C1C0013F90130F7D0012000F090F80130F2D038
:100C2C00062000F0BFF80130EDD0012C19D0022CB9
:100C3C0028D1052000F09EF80130E4D0052000F00A
:100C4C00CDF80130DFD0002000F024F90130DAD0EB
:100C5C00002000F036F901304FF0FF3018BF0020B3
:100C6C00D3E7052000F086F80130CCD0052000F049
:100C7C00B5F80130C7D0012000F00CF90130C2D01A
:100C8C000120E6E7032000F075F80130BBD003200B
:100C9C00EDE707B50DF1070000F02AF9431C18BF6A
:100CAC009DF8070003B05DF804FB07B50DF10700D4
:100CBC0000F02FF9431C18BF9DF8070003B05DF836
:100CCC0004FB084608B511461A4600F08DF90130B0
:100CDC004FF0FF3018BF002008BD000037B50025CD
:100CEC000DF106000C46ADF8065000F050F9431C0F
:100CFC0008D0BDF90600FFF7C5FA0349FFF7CAFB98
:100D0C002060284603B030BD0000C84213B504462D
:100D1C0001210A2001AAFFF75BFD431C0BD09DF8B3
:100D2C000430012164F3C6030A2001AA8DF80430B3
:100D3C00FFF726FD40B202B010BD000013B504460B
:100D4C000121102001AAFFF743FD431C0ED09DF892
:100D5C000430012164F38303102001AA8DF80430C0
:100D6C00FFF70EFD40B208B9014B1C7002B010BD6C
:100D7C005A02002013B504460121102001AAFFF7E6
:100D8C0027FD431C0BD09DF80430012164F307139D
:100D9C00102001AA8DF80430FFF7F2FC40B202B02B
:100DAC0010BD000013B504460121112001AAFFF764
:100DBC000FFD431C0ED09DF80430012164F3430356
:100DCC00112001AA8DF80430FFF7DAFC40B208B903
:100DDC00014B1C7002B010BD5902002013B5044623
:100DEC000121112001AAFFF7F3FC431C0BD09DF845
:100DFC000430012164F30713112001AA8DF804308B
:100E0C00FFF7BEFC40B202B010BD13B50446012181
:100E1C00122001AAFFF7DCFC431C0BD09DF8043018
:100E2C00012164F30003122001AA8DF80430FFF7AE
:100E3C00A7FC40B202B010BD13B50446012112202C
:100E4C0001AAFFF7C5FC431C0BD09DF8043001210F
:100E5C0064F38203122001AA8DF80430FFF790FC92
:100E6C0040B202B010BD13B504460121122001AAF4
:100E7C00FFF7AEFC431C0BD09DF80430012164F34A
:100E8C008613122001AA8DF80430FFF779FC40B2CA
:100E9C0002B010BD13B504460121152001AAFFF7BD
:100EAC0097FC431C0BD09DF80430012164F3041310
:100EBC00152001AA8DF80430FFF762FC40B202B095
:100ECC0010BD13B504460121162001AAFFF780FCC2
:100EDC00431C0BD09DF80430012164F3C71316207A
:100EEC0001AA8DF80430FFF74BFC40B202B010BDE4
:100EFC0013B50446012101AA1E20FFF769FC431C0F
:100F0C001FBF00209DF80430C3F30003237002B010
:100F1C0010BD13B50446012101AA1E20FFF758FC91
:100F2C00431C1FBF00209DF80430C3F380032370C3
:100F3C0002B010BDF7B5002407460E461546062133
:100F4C006A4628200094ADF80440FFF741FC431C8E
:100F5C0009D02046BDF800303B80BDF8023033800C
:100F6C00BDF804302B8003B0F0BD37B50025044626
:100F7C00022101AA2020ADF80450FFF729FC431CE4
:100F8C001EBF2846BDF80430238003B030BD13B516
:100F9C0004460DF10600FFF7E8FF431C0AD064235A
:100FAC000020BDF90620534348BFFF331B1203F644
:100FBC00C413238002B010BD032912D8DFE801F05E
:100FCC00020A0D0F3D2358434FF47A7390FBF3F054
:100FDC0000B270474FF4F473F5E77A23F3E7F42388
:100FEC00F1E700207047000073B506460D46144625
:100FFC0001A90DF106020DF10200FFF79BFF431C46
:10100C0011D00A4BBDF902001978FFF7D5FF3080DB
:10101C00BDF90400FFF7D0FF2880BDF90600FFF7EB
:10102C00CBFF2080002002B070BD00BF5A02002010
:10103C0010B50446C06807F02BFBB4F90600002875
:10104C0002DB002107F044F8204610BD10B5044621
:10105C00B0F90600002807DB012107F039F8002160
:10106C00B4F9060007F092F80123637010BD70B557
:10107C000446C0680E4607F00BFBE57C237C9D42C2
:10108C0014BF042503257543ADB22846A58007F08F
:10109C00F7FAE06028B12A46002107F0E5FB6680EC
:1010AC0070BD0646A080FAE7F0B4FF29C1F38107B2
:1010BC00C1F38112C1F30115477401F003078CBF12
:1010CC00002101210170C168C47C067CC2740574C6
:1010DC00877461B1A41B6142A2EB050561416A42B0
:1010EC006A41914203D0F0BC4188FFF7C0BFF0BC0D
:1010FC00704700002DE9F84FC3680446002B00F040
:10110C00888007F0BFF86369984201D26061F8E704
:10111C00C01AB0F5967FF4D372B64FF0E022E368B4
:10112C00A5883D4994F80090D2F814C01D449769E5
:10113C0013F8010BA669D1F800E0B9F1000F30D01B
:10114C00DFF8D8903649DFF8DC80BEFBF1F1BEFB4E
:10115C00F8F8BEFBF9FEA1EB0808A1EB0E0901396A
:10116C00516100214FF0800E9161E169C1F30F21B3
:10117C0010EA0E0F0CBFC246CA463161D2F818B045
:10118C00D345FBD85FEA5E0E716105D1AB4237D215
:10119C004FF0800E13F8010BD2F818B0D345FBD9E1
:1011AC00E6E72149DFF88480DFF884A0BEFBF1F18B
:1011BC00BEFBF8F8BEFBFAFEA1EB0808A1EB0E0E85
:1011CC0001395161C2F81890E169C1F30F298021EE
:1011DC0008420CBFC246F246C6F81090D2F818B0BE
:1011EC00D345FBD84908C6F8149004D1AB4207D2BA
:1011FC00802113F8010BD2F818B0D345FBD9E7E7DF
:10120C004FF0E023C3F814C09F6162B607F03AF8C0
:10121C006061BDE8F88F00BF24000020D0121300DD
:10122C0000350C00A0252600801A060080841E00C4
:10123C0035B70C0038B5437805460C4633B1B0F9D8
:10124C000600002802DB002106F042FF6B78EC80E0
:10125C003BB10121204606F03BFF0021204606F061
:10126C0095FFE2B2242A16DC1A4B53F82230C3F352
:10127C000313042B1ED8184951F82330242AAB61D0
:10128C001ADC144B53F8223003F00F03134A52F8B4
:10129C002330EB6138BD04F0C003C02B0AD1C92A3E
:1012AC0008DC0F4B04F03F0153F82110094B53F8A5
:1012BC002130DCE70023E1E704F0C003C02B07D1A9
:1012CC00C92A05DC064B04F03F0453F82420D8E768
:1012DC000F23DBE7A090000808000020B88C000862
:1012EC0078900008F8B5002504460F4616461946B6
:1012FC0045700572C5604561FFF7D6FE394620463C
:10130C00FFF7B5FE20463146FFF794FF2046F8BDA7
:10131C004388F0B58B421ED9077AC2F30746C2F355
:10132C000725D4B23FB17E437D437C43C6F30726E9
:10133C00C5F30725240A90F813C090F810E0C36891
:10134C00E64509D101EB41011944037CCE54437CA1
:10135C00CD54837CCC54F0BD03EB8101120E1FB92C
:10136C00D2B201F80C20F0E77A43C2F30722F8E777
:10137C0000207047028BC08A101A70470346C28A3D
:10138C00018B914281BF0169885C0132DA8298BF7E
:10139C004FF0FF307047028BC38A9A4286BF0269B6
:1013AC00D05C4FF0FF307047806DD0F8DC302BB143
:1013BC000023D43020F8B23CC368184770478368C8
:1013CC0010B5044613B1032201469847204610BDC0
:1013DC0038B50446283000F011FBE06918B107F06D
:1013EC0057F90023E36100252069258410B107F02B
:1013FC004FF92561A58238BD38B505460446074B23
:10140C0045F8D43BFFF7E4FF2846FFF7D8FF04F17B
:10141C00C400FFF7D4FF204638BD00BF808C000805
:10142C000123994080F8243000238176438470474F
:10143C0038B5838A05468B420C4609D2202938BF21
:10144C0020240069214607F0D9F910B12861AC823B
:10145C0038BDFEE773B5846D0546D4F8CC30866E86
:10146C00E3B1E28A238B9A4218D331462046FFF728
:10147C00DFFF3246206905F1740107F033FA0023CF
:10148C00E382D4F8CC30268301960BB907F0D4FA5A
:10149C00D4F8D03001A904F1C400984702B070BD53
:1014AC00B1F5806F70B505460C4610D8038C994287
:1014BC000AD920290E4638BF2026C069314607F0CC
:1014CC009DF918B1E8612E84204670BDFEE700241A
:1014DC00FAE713B590F8243004468DF807107BB169
:1014EC00418C0131FFF7DCFF40B10120638C9DF88A
:1014FC000710E269D154638C0133638402B010BDD0
:10150C0001220DF10701283000F0B6FAB0FA80F094
:10151C004009F3E770B590F8243004460E461546A2
:10152C0093B1418C1144FFF7BBFF10B9002528463D
:10153C0070BD638CE0692A461844314607F0D2F935
:10154C00638C2B446384F2E792B2283000F094FA57
:10155C000028EBD1EBE70346006918B100219A8A09
:10156C0007F082B970470346C06918B100211A8C84
:10157C0007F07AB9704738B50446D1B94FF42A034D
:10158C00A36594F8BE30012B16D1638CE269A17E61
:10159C0004F1280000F0F0FA042828BF042045B21A
:1015AC002046FFF7E0FF0023638484F82430E8B280
:1015BC0038BD4FF02A43E3E70425F8E72DE9F0475F
:1015CC0090F8BEA00446BAF1010F0F461646984695
:1015DC009DF820509DF8249038D111467F00FFF7DC
:1015EC0027FFFFB2CDB1032D28BF03250023013DFA
:1015FC00EDB284F824A0A7766384ED00236828FA62
:10160C0005F120461B68C9B2083D984715F1080F33
:10161C00F4D100212046FFF7AEFFB9F1000F12D133
:10162C004FF42A03A36539463346226904F1280096
:10163C0000F03CFA002818BF002600232683E38222
:10164C003046BDE8F0874FF02A43EBE70026F7E77A
:10165C0007B5019300230093FFF7B0FF03B05DF8CB
:10166C0004FB0123D2B2C9B2FFF7F2BF0121FFF78D
:10167C0082BF38B500250446C5820583FFF76BFF92
:10168C0020466584FFF76FFF38BD0000F8B50446AF
:10169C00D0F8840006F002FD002106F019FDD4F804
:1016AC008420C2F30313042B47D8274D274E55F83B
:1016BC00233002F00F029B6856F82220DB4303EA2A
:1016CC0012239BB2002B3ED0D4F8880006F0E6FC27
:1016DC00012106F0FDFCD4F888001D4BC0F303116A
:1016EC0004291B682CD81B4C1427B3FBF4F30A24D5
:1016FC0000F00F0256F822206343174CC2F30F225E
:10170C0055F821C0CCF81420D4F804E06668A6EB98
:10171C000E06B342FADCCCF81020D4F804C066688C
:10172C00A6EB0C06B342FADC013FE9D106F0B6FC9D
:10173C003946BDE8F84006F0CBBC00239B68FFDEC1
:10174C0000235B61FBE7F8BD08000020B88C0008A3
:10175C002400002040420F00001000E02DE9F04171
:10176C0000260446C68206831F460D469046FFF7A8
:10177C00F2FE20466684A676FFF7F5FED4F8DC3040
:10178C00C4F8804033B104F1D401032208469847D1
:10179C00C4E93766002384F824306B0084F82530C4
:1017AC006B1E5D425D41204684F8BE5084F8BF80BC
:1017BC0084F8C07004F12805FFF768FF94F8253011
:1017CC004FF480422846094900F05CF894F8BE308A
:1017DC004BB92846064900F027FA2846BDE8F041E7
:1017EC00044900F01ABABDE8F08100BFA0860100E0
:1017FC00B5130008611400080A4600230121FFF705
:10180C00ADBF0022C0E90022C0E9022270470022CD
:10181C00C0E90022C0E902227047000038B500255B
:10182C004FF47A730446C0E901530E4B40F8C43BA5
:10183C00FFF7E7FF04F1D400FFF7E9FF9C222946EC
:10184C0004F1280007F010F8074B2046DA6DC4F8B5
:10185C0084209B6DE561C4F8883025842561A582C0
:10186C0038BD00BF808C0008A09000080148FFF72D
:10187C00D5BF00BF5C0200200148FFF7BDBD00BF13
:10188C005C0200202DE9F3410D46174698460446AC
:10189C00002800F09F805149C06D04F01FFC504996
:1018AC000646206E04F01AFC0146002E00F09280D1
:1018BC00002800F08F80304604F027FC20600028C0
:1018CC0000F08880474B261D984262D103F5DE3329
:1018DC00DA6942F40012DA61DA6902F40012009259
:1018EC00009A1A6942F400121A611A6922F4001261
:1018FC001A6142F21F03A4F864303B4B1E60384956
:10190C00206E04F0D3FBE06D344904F0CFFB374874
:10191C0023688542636006D93548854203D935482A
:10192C00854288BF0020314B02219D4294BF002587
:10193C000125AD03C4E90358002594F897302A46D5
:10194C005B1B18BF01239B01236294F89830A060A5
:10195C005B1B18BF0123DB01636294F96400C4E9CB
:10196C000575E56184F8415000F03EFA94F9640085
:10197C0000F06AFA2A46022194F9650000F034FA64
:10198C0094F9650000F060FA304600F06DFBE8B1A8
:10199C00FEE7194B9842B2D103F5DC33DA6942F415
:1019AC008002DA61DA6902F480020192019A1A6902
:1019BC0042F480021A611A6922F480021A6142F21E
:1019CC002123A4F86430084B5E6098E70223A066DC
:1019DC0084F8953002B0BDE8F08100BF4890000853
:1019EC00189000080054004040030020A08601001D
:1019FC00801A060040420F000058004010B5044603
:101A0C0090F9640000F02EFA94F9650000F02AFABF
:101A1C00201D00F0D2FB0321206E04F087FA032175
:101A2C00E06D04F083FA2368104A93420DD1104BF9
:101A3C001A6942F400121A611A6922F400121A612E
:101A4C00DA6922F40012DA6110BD0A4A9342FBD122
:101A5C00074B1A6942F480021A611A6922F4800257
:101A6C001A61DA6922F48002EDE700BF00540040ED
:101A7C000010024000580040202A30B514D8002332
:101A8C009CB2A24207D890F894301344DBB280F891
:101A9C009430002030BD90F89440CD5C1C4404443C
:101AAC0084F874500133EBE70120F3E72DE9F34799
:101ABC0005460F469046994600F07EF900240646EE
:101ACC00D5F830A004354B46424639462846CDF869
:101ADC0000A000F0A7FC022806D100F06DF9841BD1
:101AEC00642CF0D906201FE008BB00F065F906460F
:101AFC00284601F0FDFB202809D0632C07D800F004
:101B0C005BF9841B284601F0F6FB0028F0D0284630
:101B1C0001F0F1FB632C0CD882060AD443070AD4DB
:101B2C00003818BF0120800002B0BDE8F087042007
:101B3C00FAE70520F8E70320F6E710B5642304461E
:101B4C00043000F053FB022810D0032806D090B1CB
:101B5C0094F84130202B18BF042004E094F8413055
:101B6C00202B18BF052008BF022004E094F8413058
:101B7C00202B18BF062010BD2DE9F34704460E4656
:101B8C0091461F4600F018F980463FB901223146B4
:101B9C00204602B0BDE8F047FFF7CFBF0025D4F8D0
:101BAC0030A004343B464A4631462046CDF800A0CE
:101BBC0000F0D0FB022807D100F0FEF8A0EB0805DE
:101BCC00642DEFD906201FE008BB00F0F5F806469F
:101BDC00204601F08DFB202809D0632D07D800F09A
:101BEC00EBF8851B204601F086FB0028F0D0204640
:101BFC0001F081FB632D0CD882060AD443070AD46A
:101C0C00003818BF0120800002B0BDE8F087042026
:101C1C00FAE70520F8E70320F6E720B119B1C16611
:101C2C00043000F0FBBC704720B119B101670430DF
:101C3C0000F0F4BC704770B590F891300446012B5D
:101C4C000D46A0F1040609D1436E3BB1836E3046BC
:101C5C009847022384F89130002363668DB9E36EB4
:101C6C0084F891501BB1304684F890509847204628
:101C7C0094F8902004F170012023BDE8704000F02E
:101C8C0057BC00230122636684F89120616E2046C4
:101C9C00743131440423BDE8704000F084BC10B5AD
:101CAC0090F891300446012B04D1436E13B1836E2E
:101CBC0004389847022384F8913000232046636649
:101CCC00BDE8104000F0AABC436E1F2BDEBF436E74
:101CDC000133436690F89130012BDAB205D1416E95
:101CEC0004237031014400F05EBC7047002380F87F
:101CFC009030704790F892300BB900F08FBC704761
:101D0C00014B186800F00ABE40030020014B186814
:101D1C0001F04EBA40030020014B586800F0FEBDA4
:101D2C0040030020014B586801F042BA40030020E8
:101D3C007047000038B50E4B05461A784FF47A738D
:101D4C00B3FBF2F30B4A1068B0FBF3F000F09CF815
:101D5C00044658B90F2D09D8024629464FF0FF30DA
:101D6C0000F042F82046044B1D6038BD0120FCE712
:101D7C00000000202400002004000020074A08B5C1
:101D8C001368032043F01003136000F01BF80020CD
:101D9C00FFF7D0FFFFF7CCFF002008BD002002406A
:101DAC00034A044B11681B780B441360704700BF47
:101DBC004803002000000020014B1868704700BF4A
:101DCC004803002007490302CA6803F4E06322F4C5
:101DDC00E0621204120C134343F0BF6343F400336C
:101DEC00CB60704700ED00E0154B30B5DC68C4F3F8
:101DFC000224C4F10703251D042B28BF0423062D40
:101E0C004FF0FF3594BF0024033C05FA03F321EA9D
:101E1C000303A54022EA0502A340002843EA02037B
:101E2C00ACBF00F16040074A4FEA0313DBB2ABBF13
:101E3C0000F5614000F00F0080F80033135430BD02
:101E4C0000ED00E014ED00E0002807DB0123410960
:101E5C00034A00F01F00834042F82130704700BF56
:101E6C0000E100E000280CDB01220649430900F0E8
:101E7C001F008240203341F82320BFF34F8FBFF364
:101E8C006F8F704700E100E00138B0F1807F0BD21A
:101E9C004FF0E023F021054A586182F8231000200E
:101EAC00072298611A6170470120704700ED00E02D
:101EBC00002808DB01224309034900F01F0082407F
:101ECC00603341F82320704700E100E0704708B50B
:101EDC00FFF7FCFF08BD704710B5044650B14379BD
:101EEC0003F0FF0213B90271FFF7F5FF0123002085
:101EFC00637110BD0120FCE790F821200346022AF3
:101F0C0006D0042282630120002283F8202070472F
:101F1C000268C06B116821F00E011160116821F08C
:101F2C000101116001211A6C01FA02F242600020D9
:101F3C0083F82110E8E7000008B590F82130022B57
:101F4C0003D004238363012008BD03681A6822F0C0
:101F5C000E021A601A6822F001021A60174A9342A4
:101F6C001FD0143293421ED0143293421DD014321F
:101F7C0093421DD0143293421DD01432934214BF9D
:101F8C004FF080734FF480130D4A5360012380F897
:101F9C002130002380F82030436B03B19847002098
:101FAC00D2E70123F0E71023EEE74FF48073EBE761
:101FBC004FF48053E8E74FF48033E5E70800024024
:101FCC000000024090F8210070470000044A08B558
:101FDC005169014202D0506103F0BAFD08BD00BF47
:101FEC00000401402DE9F84606460F4691461D4671
:101FFC004FEA114A3368BAF1010F0CBF5C699C6956
:10200C0027EA0404A4B2B4FA84F46409A14501D00B
:10201C00002025E06A1CEED0FFF7CEFE089BC01A0C
:10202C00A84201D8002DE5D13368BAF1010F0CBFDD
:10203C005B699B6927EA03039BB2B3FA83F35B09E1
:10204C009945D7D1002320220120336386F83D2007
:10205C0086F83E30326C86F83C3042F02002326416
:10206C00BDE8F8867047000070B5044608B9012039
:10207C0070BD90F83D3003F0FF021BB980F83C2096
:10208C00FFF7F0FF242384F83D3023681A6822F010
:10209C0001021A601A6842F400421A601A6822F4AB
:1020AC0000421A6002F028FA3F4B65689D4294BFCB
:1020BC003E4B3F4B98428CBF00230123002BD6D1C3
:1020CC00394E3C4BB542B0FBF3F388BF4FF49676D8
:1020DC002268516821F03F0141EA030182BF73433A
:1020EC004FF47A76B3FBF6F35160116A013321F0A9
:1020FC003F010B431362D169431E2B4821F44F411E
:10210C00854221F0FF0132D86D00B3FBF5F340F6A8
:10211C00FC700133034242D0C3F30B031943D1616A
:10212C001168D4E9073021F0C00103430B4313605D
:10213C009168D4E9030321F40341034321F0FF0127
:10214C000B439360D168D4E9053021F0FF010343C0
:10215C000B43D3601368002043F00103136020236A
:10216C00206484F83D30206384F83E0080E7A0684A
:10217C0050B905EB4505B3FBF5F30133C3F30B0382
:10218C007BB143F40043C9E719206843B3FBF0F378
:10219C000133C3F30B0323B143F44043BEE70423E1
:1021AC00BCE70123BAE700BFA08601007F841E00B4
:1021BC00FF083D0040420F00704710B5044698B12F
:1021CC002423026880F83D30136823F00103136068
:1021DC00FFF7F2FF0020206484F83C0084F83D00F7
:1021EC00206384F83E0010BD0120FCE72DE9F04F80
:1021FC00044685B01F4688469246FFF7DDFD94F8ED
:10220C003D300546202B03D0022005B0BDE8F08FF1
:10221C0000901923012220464C49FFF7E3FE0028C9
:10222C00F2D194F83C30012BEED0012384F83C30F1
:10223C00236800261A68DFF814B1D00758BF1A6853
:10224C0008F0FE085CBF42F001021A601A6822F422
:10225C0000621A60242384F83D303D4B2664E3620F
:10226C0022684FF001111368204643F48073136009
:10227C003B4600220095FFF7B5FE236838B11B687A
:10228C000320D90544BF4FF400732364BDE7C3F8A2
:10229C001080FFF791FD4FF0A009054623685A699D
:1022AC005B69C2F34002C3F3802394F83D10A0296C
:1022BC001CD14FF02009236884F83D905A6992078D
:1022CC002BD51A68204642F400721A600022039241
:1022DC005A691E4903929B6901220393039B009543
:1022EC001923FFF77FFE98B101208EE71343E0D14D
:1022FC00FFF762FD401BB84200D80FB984F83D903F
:10230C0023685A695B69C2F34002C3F38023CCE7AC
:10231C0084F83D9084F83C0077E71A68594642F4FB
:10232C0000721A606FF4806220465A6119230122F0
:10233C000095FFF757FE0028D6D1013656458FD3AE
:10234C0084F83D9084F83C00CEE700BF02001000FA
:10235C000000FFFFF7B5002504460095019594F8A1
:10236C003D500898202D02D0022003B0F0BD256806
:10237C002E68B60503D4082801D001281BD146F2DB
:10238C00A817274E3668B6FBF7F619277E43019639
:10239C00019E013E0196019E56B92023266384F8C6
:1023AC003D3084F83E60236C43F020032364DBE76C
:1023BC00AE69B707ECD494F83C60012ED4D02E68EB
:1023CC00F6075EBF2E6846F001062E602E6826F4D6
:1023DC0000662E60212684F83D60102684F83E604D
:1023EC00002626646385638DE06261642385236B1C
:1023FC0062620093009B112B05D1B0F52A0F02D01D
:10240C00B0F12A4F03D12B6843F480732B6000206A
:10241C0084F83C006B6843F4E0636B60A5E700BF95
:10242C0024000020F7B5002504460095019594F88A
:10243C003D500898202D02D0022003B0F0BD256835
:10244C002E68B60503D4082801D001281BD146F20A
:10245C00A817364E3668B6FBF7F619277E43019659
:10246C00019E013E0196019E56B92023266384F8F5
:10247C003D3084F83E60236C43F020032364DBE79B
:10248C00AE69B707ECD494F83C60012ED4D0012689
:10249C0084F83C602E68F6075EBF2E6846F0010695
:1024AC002E602E6826F400662E60222684F83D608D
:1024BC00102684F83E60002626646385638DE062F6
:1024CC0061642385236B62620093638D9BB2022B44
:1024DC0024D1202801D0102820D1009B122B2B684E
:1024EC001DD14FF4407223F480632B602B6843F4AE
:1024FC0000632B60009B122B05D1B0F52A0F02D084
:10250C00B0F12A4F03D12B6843F480732B60002069
:10251C0084F83C006B6813436B608EE72B6843F4C4
:10252C0080634FF4E0622B60E4E700BF24000020DE
:10253C0037B5044690F83D0000F02800282830D12B
:10254C0000292CD0002A2AD094F83C00012828D04D
:10255C0025682868C0075EBF286840F00100286025
:10256C00286820F400602860292084F83D00202091
:10257C0084F83E00002020646285628DE362019045
:10258C006B6961620193AB6984F83C000193019B18
:10259C006B68228543F4E0636B6003B030BD0120AF
:1025AC00FBE70220F9E737B5044690F83D0000F050
:1025BC002800282830D100292CD0002A2AD094F8C1
:1025CC003C00012828D025682868C0075EBF286811
:1025DC0040F001002860286820F4006028602A2060
:1025EC0084F83D00202084F83E00002020646285A1
:1025FC00628DE36201906B6961620193AB6984F84F
:10260C003C000193019B6B68228543F4E0636B6093
:10261C0003B030BD0120FBE70220F9E790F83D3014
:10262C00202B14D1282380F83D30036800201A6831
:10263C00D2075EBF1A6842F001021A601A6842F4AF
:10264C0080621A605A6842F440725A6070470220E5
:10265C00704770477047704790F83D2008B5036D80
:10266C00D2B283B9C36C0268012B836C05D1DBB287
:10267C001361036D0233036508BDC3F307231361B4
:10268C00036D0133F7E7036D012B03D1836C0268F3
:10269C00DBB2F4E7036D022B2FD1222A05D102689D
:1026AC00136843F480731360EAE7438D9BB263B104
:1026BC00212A0AD1436A026813F8011B1161436293
:1026CC00438D013B9BB24385D6E7438D9BB2002BD8
:1026DC00D2D1212AD0D10268516821F4E061516035
:1026EC00116841F4007111602022036380F83D20D1
:1026FC0080F83E30FFF7AFFFBEE703685A69120659
:10270C0044BF00221A61B7E770477047002337B502
:10271C0046F2A81101932C4B406A1B6890F83D209F
:10272C00B3FBF1F323214B4301930368D2B201991C
:10273C0041BB016C41F020010164446B0CB10021E0
:10274C00A162816B09B100258D621D6825F480653D
:10275C001D600025458504B1656301B14D631968A1
:10276C0021F00101196090F83D10602911D120234E
:10277C0080F83D30002380F83E300364FFF7C5FF3E
:10278C0003B030BD01990139019119688905CED486
:10279C00D3E702F02802282A0ED1196841F0010172
:1027AC001960196841F4806119600023036380F893
:1027BC003D20FFF79FFAE3E7202380F83D3000230C
:1027CC0080F83E30F5E700BF2400002010B590F8EB
:1027DC003D2090F83E300446102BD9B2D2B203689B
:1027EC0001D0402913D1222A11D1196821F400619A
:1027FC001960596811F4006106D1602A1EBF2022AD
:10280C0084F83D2084F83E100022226307E002F099
:10281C0028012829EDD10022226384F83D105A6842
:10282C0012F400624FD05A68606B22F400625A6056
:10283C0090F82130012B374B2BD04363FFF77CFBF7
:10284C0050B12268606B136823F0010313602023DE
:10285C0084F83D30436B9847236C19071FBF2268DF
:10286C00536823F4E063536094F83D30226CDBB280
:10287C0052070DD5282B0BD1274B2022E3620023C6
:10288C002046236384F83D2084F83E30FFF707FA96
:10289C0010BDA06B4363FFF74FFB0028DCD023680F
:1028AC005A69510605D51A69636A1A70636A01334D
:1028BC0063622268A06B136823F00103136020236A
:1028CC0084F83D30C6E794F83D10602915D12021DD
:1028DC0084F83D1022645A69520605D51A69636A58
:1028EC001A70636A0133636222682046136823F00E
:1028FC0001031360FFF709FFAEE75A69500605D5CF
:10290C001A69636A1A70636A013363622046FFF7BF
:10291C00F1F9A1E7192700080000FFFFF0B5044604
:10292C0003688FB05A68C66A90F83E0094F83D1060
:10293C001028C5B2C9B202D0402D40F0D7829F6991
:10294C00586910F0010F07D1B6F52A0F02D0B6F175
:10295C002A4F51D10FB0F0BD96054DD5E26AB2F5B4
:10296C002A0F0CD10122E26294F83E20402A11D1A8
:10297C00226D52B9626C02F0FE021A61EAE7E26A59
:10298C00B2F12A4FF0D10822EDE7626C42F001025D
:10299C00D2B2F2E72269B2F5804F1AD194F83D20F9
:1029AC00212A626C11D102F0FE021A61626B0AB12B
:1029BC00926A2AB9A26B002ACCD0926A002AC9D09A
:1029CC005A6842F400625A60C4E742F00102D2B283
:1029DC00EBE7226D32B9626CD21102F0060242F0C2
:1029EC00F002CAE7226D012AB4D1626CD21102F056
:1029FC00060242F0F102C0E7060703D5960501D5A1
:102A0C00626CE4E7860740F1F080960540F1ED80BA
:102A1C0094F83E10E26A256B94F83D00C9B2222866
:102A2C0040F0DB80206D40B9402906D100905A69F6
:102A3C0000929B690093009B8CE7216D89B92069FA
:102A4C00B0F5404F0DD101915A6901929A690192EA
:102A5C00019A1A6842F480721A60236D013323655F
:102A6C0078E7618D89B251B902915A6902929A69DB
:102A7C000292029A1A6842F400721A6019E0618D8F
:102A8C0089B2012949D112F5803F1BD11A6822F471
:102A9C0080621A605A6812F400620CD01A6822F430
:102AAC0080621A60002203925A6903929B69039315
:102ABC00039B0023D3E704925A6904929A69049207
:102ACC00049AD7E7082A1CD0202A1AD0122D0DD12F
:102ADC00012A16D11A6822F480621A60002205922B
:102AEC005A6905929B690593059BE2E7102AF1D878
:102AFC00864941FA02F2D707ECD41A6842F4806294
:102B0C00EBE71A6822F480621A60002206925A6976
:102B1C0006929A690692069AACE7618D89B20229EF
:102B2C0038D1102A03D87A49D140CE0718D4196865
:102B3C0041F4006119600021079159690791996965
:102B4C0007910799196821F48061196059680D057E
:102B5C00AFD5202A1BD8072A0ED8012AA9D111E0FB
:102B6C00196841F480611960002108915969089134
:102B7C00996908910899E9E7A2F10801654ACA40E8
:102B8C00D00796D55A6842F480525A6091E712F5F4
:102B9C00803FE3E7196841F48061196059680905C1
:102BAC0010D5202A16D8072A06D8012A0AD15A6825
:102BBC0042F480525A6005E0A2F10801554ACA401D
:102BCC00D207F4D4002209925A6909929B6909939D
:102BDC00099B6EE712F5803FE8E700220A925A69DA
:102BEC000A929B690A930A9BB4E67F0740F1948092
:102BFC005E6836053FF5AEAE070600F004063ED51E
:102C0C0050053CD5002E3DD194F83D20258D94F8EF
:102C1C003E10D2B2E06AC9B2C5B9212A18D108282F
:102C2C0058D0202856D010F5803F53D05A6822F443
:102C3C00E0625A6011232363002384F83E30202382
:102C4C00204684F83D30FFF704FD83E6212A05D0A9
:102C5C0040297FF47FAE222A7FF47CAE628D92B243
:102C6C001AB95A6822F48062ADE694F83E20402AE4
:102C7C0016D120460FB0BDE8F040FFF7EDBC002E9A
:102C8C003FF468AE97057FF565AE212939D1E16A2D
:102C9C0094F83D20212A7FF45DAE628D92B24AB148
:102CAC00626A12F8011B19616262638D013B9BB26F
:102CBC0063854FE608290DD020290BD011F5803FF4
:102CCC0008D0596821F4E06159601123236384F81A
:102CDC003E20B4E75A68204622F4E0625A601A6833
:102CEC0042F400721A6000232022236384F83D20F2
:102CFC0094F83E2084F83E30402AA4D1FFF7ABFC78
:102D0C0028E6402D7FF426AEB3E700BFEBFFFEFFB5
:102D1C00140001000101000159680E053FF51AAEBF
:102D2C00450600F0040176D5500574D5002975D1FF
:102D3C0094F83D20222A7FF40DAE628D92B2032AC4
:102D4C0014D91A69636A1A70636A01336362638DFA
:102D5C00013B9BB26385638D9BB2032B7FF4FAAD71
:102D6C002268536823F480635360F3E5E06A022819
:102D7C003FF477AF012A3FF674AF0B9146F2A811DE
:102D8C00734A1268B2FBF1F202EB82020B920B9ABD
:102D9C00013A0B920B99D1B9226C204642F02002D9
:102DAC0022645A6822F4E0625A601A69636A1A70E3
:102DBC00636A01336362638D013B9BB2638520239D
:102DCC0084F83D3084F83E10FEF794FFC2E51A6893
:102DDC0012F40072DBD1196821F480611960596812
:102DEC0021F4E06159601969636A1970636A0133EF
:102DFC006362638D013B9BB26385202384F83D3075
:102E0C0094F83E3084F83E20402B69D12263204652
:102E1C00FFF77AFC9EE500293FF49CAD92057FF507
:102E2C0099ADE26A608D616A80B2042809D15A6852
:102E3C0022F480625A601B690B70636A013363620F
:102E4C0033E7608D80B203280CD15868042A20F433
:102E5C0080605860EFD0022AEDD01A6822F48062AC
:102E6C001A60E8E7608D80B20228E4D1042A33D0DE
:102E7C0007D8012A07D0022A2ED01A6842F4007211
:102E8C0004E0102AF9D11A6822F480621A601B69D6
:102E9C000B70626A531C6362638D013B9BB263854A
:102EAC0023681B695370636A226801336362638D04
:102EBC00013B9BB26385536823F44073536020231A
:102ECC0084F83D3094F83E30402B4FF0000384F8EA
:102EDC003E3005D123639AE71A6842F48062D5E745
:102EEC00122320462363FFF7B5FB33E5206C10B3A8
:102EFC000025586987072DD596052BD5226C02B174
:102F0C009D6994F83D2002F02802282A16D15A68AF
:102F1C002F0622F480625A604FF0000385F0040102
:102F2C00204654BFA289228BC1F3800184F83C3027
:102F3C00FEF781FE0EE59D695869DBE700220C92D5
:102F4C0059690C919B6984F83C200C930C9B01E50E
:102F5C0024000020C60640F1B180950540F1AE80FA
:102F6C0094F83D505A68EDB222F4E0625A600022A7
:102F7C000D925A690D921A6842F001021A600D9A6C
:102F8C001A6822F480621A605A68100520D505F080
:102F9C00F702222A4AD1A06B0268526892B262856B
:102FAC00628D92B21AB1226C42F0040222645A6809
:102FBC0022F400625A60FFF705F8012808D0A06BD4
:102FCC00794B4363FEF7B8FF10B1A06B436B984786
:102FDC00638D9BB213B323685A69510709D51A69DB
:102FEC00636A1A70636A01336362638D013B9BB23F
:102FFC00638523685A69520609D51A69636A1A707F
:10300C00636A01336362638D013B9BB26385638D9D
:10301C009BB21BB1236C43F004032364236C13B3E6
:10302C0020460FB0BDE8F040FFF7D0BB606B0268E4
:10303C00526892B26285628D92B21AB1226C42F0E1
:10304C00040222645A6822F400625A60FEF7BAFF46
:10305C000128BDD0606B544B4363FEF76DFF002815
:10306C00B6D0606BB2E72A2D06D123632823204605
:10307C0084F83D30FEF728FE94F83D30282B0CD117
:10308C004A4B2022E36200232046236384F83D2030
:10309C0084F83E30FEF703FE5CE4236B222B02D057
:1030AC00222D7FF457AC00232022236384F83D208B
:1030BC0084F83E302046FEF707FE4BE401F0F701A2
:1030CC00212900F0040535D1070627D5560525D54D
:1030DC003DBB94F83D00628DC0B292B2002A3FF421
:1030EC0039AC626A12F8015B1D616262628D013A51
:1030FC0092B26285628D92B2002A7FF42BAC2928A1
:10310C007FF428AC5A68204622F480625A60282347
:10311C00216384F83D30FEF7E9FD1BE4002D3FF4FC
:10312C0019AC95057FF516AC628D92B2002A3FF46E
:10313C0011ACB5E5400627D5510525D53DBB94F816
:10314C003D20618DD2B289B200293FF403AC1969DC
:10315C00636A1970636A01336362638D013B9BB2CE
:10316C006385638D9BB2002B7FF4F4AB2A2A7FF42A
:10317C00F1AB2268536823F48063536022232363EA
:10318C00282384F83D3095E7002D3FF4E3AB9205FE
:10319C007FF5E0AB628D92B2002A3FF4DBAB1A698B
:1031AC00636A1A7049E600BF192700080000FFFF88
:1031BC00F8B5036804465F695E6890F83E2017F422
:1031CC008075D2B20AD016F4807507D06FF4807176
:1031DC0001255961196841F400411960B80506D5FB
:1031EC00F10542BF6FF4007145F002055961780595
:1031FC0036D5F10534D5608D94F83D10202AD4F8DD
:10320C0030C080B2C9B25FD100285DD101F0F700A7
:10321C00212804D0282957D1BCF1210F54D194F87E
:10322C003D20E16AD2B2082901D020292AD1282ACE
:10323C0028D12E4A2046E2625A6822F4E0625A6093
:10324C006FF480625A611A6822F480621A6000235B
:10325C002022236384F83D2084F83E30FEF71FFDC6
:10326C003A053FD5F3053DD56FF40062236845F070
:10327C0008055A61236C20462B432364BDE8F840B3
:10328C00FFF7A4BA212A1BD11849E162226300215D
:10329C00202284F83D2084F83E105A6822F4E06223
:1032AC005A606FF480625A611A6822F480621A6064
:1032BC005A69100648BF19612046FEF717FDCFE783
:1032CC006FF480625A61CBE76FF48061102A596108
:1032DC0045F0040501D0402AC2D11A6842F40072AC
:1032EC001A60BDE7002DC5D1F8BD00BF0000FFFF7F
:1032FC0090F83D007047006C7047F0B5044687B0FD
:10330C0010B390F8A93203F0FF021BB980F8A82281
:10331C0004F01CFB032325466E4684F8A93255F8AD
:10332C00100B01F0D6FD0FCD0FC62B682546336070
:10333C00271D55F8100B97E80E0001F0BAFD064654
:10334C0030B1022384F8A9320125284607B0F0BD1C
:10335C000146206801F0C7FD31464FF0010E2826CA
:10336C000A46D4F804C0C8B2844501F101011DD845
:10337C00002128260A46C8B2844501F1010121D852
:10338C000FCD6E460FC62B683360206897E80E0091
:10339C0001F0ABFD05460028D3D1012384F82400AD
:1033AC00206884F8A93202F059F8CEE706FB0043F6
:1033BC00C3E90E2283F829E083F8280083F82B2038
:1033CC001A64D0E706FB0043C3E95E2283F8692147
:1033DC0083F8680183F86B21C3F88021CBE738B5FB
:1033EC0090F8A8320446012B10D0012580F8A85281
:1033FC00006801F065FD2946204600F01EFE20689D
:10340C0002F02AF8002084F8A80238BD0220FCE75C
:10341C0010B590F8A8220446012A0BD0012280F89E
:10342C00241080F8A822006802F010F8002084F81C
:10343C00A80210BD0220FCE72DE9F04F044685B030
:10344C00006802F00DF810F4004500F03A842827CB
:10345C00DFF824832068B0F844301B0402D405B094
:10346C00BDE8F08FB0F84450A9B215F00F0540F04C
:10347C00C58011F010012BD103889BB203EA08031D
:10348C0043F400430380B0F8503094F828209BB2EA
:10349C0003EBC20300EB4303B3F80434E26BC3F356
:1034AC0009031A4463642046E26304F0B0FA94F80A
:1034BC002430002BCED0226C2168002ACAD194F87B
:1034CC00243043F08003A1F84C3084F82420C1E769
:1034DC000588ABB215F4006521D0B0F8503094F8E3
:1034EC0068219BB203EBC20300EB4303B3F80C342B
:1034FC00B4F86E21C3F30903C4F8843104F52C71BC
:10350C0002F0F9F922682046138823F070031B059A
:10351C001B0D43F08003138004F06AFA9AE7190438
:10352C0098D5038823F070031B051B0D43F0800313
:10353C000380B0F8503094F868219BB203EBC203BF
:10354C0000EB4303B3F80C34C3F30903C4F8843120
:10355C008BB1D4F87C1171B1B4F86E2102F0CBF9B7
:10356C00D4F87C31D4F88421294613442046C4F87D
:10357C007C3104F043FA21680A8893B212053FF5B6
:10358C0069AF03F44053B3F5405F3FF463AFB1F858
:10359C00502001F20C4092B2835AC3F309038352B8
:1035AC00D4F878313E2B1DD95D09DB06835A08BF50
:1035BC0005F1FF359BB243EA85236FEA43436FEA7B
:1035CC0053439BB283520B8823F4804323F0700344
:1035DC001B041B0C83F4405343F4004343F080035F
:1035EC000B8037E70BB9835AE7E75D08DE07835A90
:1035FC0048BF01359BB243EA8523E2E730F825301A
:10360C009EB21B0440F1F78030F8253007FB0541D2
:10361C0023F070031B051B0D43F0800320F82530AD
:10362C0091F8743100F5806EBBB9B0F8503091F858
:10363C0068219BB2063303EBC2033EF81390C9F327
:10364C000909B9F1000F00F0BB804B46B1F86E21AF
:10365C00D1F87C1102F04FF9B2E091F86B3191F88E
:10366C006821022B40F08A80B0F850904FEAC20BD0
:10367C001FFA89F916F4804AD1F88031D94406F042
:10368C00400C3CD009F102093EF81990C9F3090924
:10369C00994513D90023C1F8803130F8223023F436
:1036AC00804323F070031B041B0C83F4005343F47E
:1036BC00004343F0800320F8223005E0A3EB09031C
:1036CC00C1F88031002BE8D0BCF1000F0DD030F8E0
:1036DC00223023F4E04323F070031B041B0C43F44F
:1036EC00004343F0C00320F82230B9F1000F67D03B
:1036FC00282101FB05414B46B1F87021A8E709F1DF
:10370C0006093EF81990C9F30909994512D9C1F86F
:10371C0080A130F8223023F4804323F070031B0483
:10372C001B0C83F4005343F4004343F0800320F854
:10373C00223005E0A3EB0903C1F88031002BE8D05F
:10374C00BCF1000F0DD130F8223023F4E04323F00C
:10375C0070031B041B0C43F4004343F0C00320F81C
:10376C002230B9F1000F2BD0282101FB05414B462B
:10377C00B1F872216CE700BF0F8FFFFF30F82230D9
:10378C0023F4E04323F070031B041B0C43F40043AD
:10379C0043F0C00320F8223091F8682130F8223031
:1037AC00D20013F4804FB0F850309BB255D0023396
:1037BC0013443EF81390C9F30909B9F1000F9AD1DB
:1037CC0007FB05F16318D3F884214A44C3F884211C
:1037DC00D3F87C214A44C3F87C21D3F880211AB158
:1037EC00D3F87831994542D207FB0543204693F82C
:1037FC00681104F003F9310620687FF52BAE30F820
:10380C00253007FB05499BB203EA080343F4004348
:10381C0020F8253099F82B30012B52D1002199F842
:10382C003430C9F840109BB316F0400699F82920A3
:10383C0099F8283032D00ABBB0F850201B0192B254
:10384C0000F2044010441A5AC2F309021A521A5ACE
:10385C0092B242F400421A521AE006331A443EF86D
:10386C001290C9F30909B9F1000FA9D07FE701F54E
:10387C00B4712068214401F009FEBCE7012A07D18C
:10388C00B0F8502000F2044092B21B0110441952BF
:10389C0099F82810204604F0BAF8DBE532B9B0F8F4
:1038AC0050201B0192B200F20C40CBE7012AEFD161
:1038BC00B0F8502000F20C4092B21B0110441E5282
:1038CC00E6E799F8281016F4807CD9F840304FEAD6
:1038DC00C10A00F5806E20D1B0F8502092B252444B
:1038EC0002323EF81220C2F309029A4202D3C9F8FE
:1038FC0040C0CFE79B1AC9F84030D9F83C3005FBE3
:10390C0007711344C9F83C30D9F8443021441344AE
:10391C00C9F8443001F0BAFD9CE516F0400206F4FB
:10392C00804600F0E980B0F85020B6B292B2524412
:10393C0002323EF812C02822CCF3090C9C4528BF59
:10394C00002302FB054238BFA3EB0C031364002BCE
:10395C0051D199F82920002A3AD1B0F8502000F220
:10396C00044592B20B011544EA5AC2F30902EA5219
:10397C00EA5A6FEA42426FEA524292B2EA52B0F805
:10398C00502000F20C4092B21044C25AC2F3090209
:10399C00C252C25A6FEA42426FEA524292B2C252C9
:1039AC00204604F034F8002E00F0E98099F8281035
:1039BC00226832F8213023F4E04323F070031B0417
:1039CC001B0C43F4404343F0800322F82130D6E033
:1039DC00012AE5D1B0F850C000F204451FFA8CFC66
:1039EC000A016544AB52B0F8505000F20C40ADB235
:1039FC0028448352D4E76EB130F8213023F4E043ED
:103A0C0023F070031B041B0C43F4404343F080036E
:103A1C0020F82130282303FB054393F84C20012A7E
:103A2C0040F0AD80DA6BD3F848E002EB0C065A6C30
:103A3C00DE6362445A649A6B964533D3AEEB020E46
:103A4C00C3F848E099F829C093B2BCF1000F46D1F5
:103A5C00B0F850E000F2044C1FFA8EFEF444090159
:103A6C003CF801E03E2ACEF3090E2CF801E026D9F1
:103A7C004FEA521ED2063CF8012008BF0EF1FF3E61
:103A8C0092B242EA8E226FEA42426FEA524292B2FC
:103A9C002CF80120282202FB0542128E314601F03F
:103AAC00E5FC6CE0BEF1000F03D1624683F84CE0FC
:103ABC00C8E7002283F84C209A647246C2E712B918
:103ACC003CF80120DFE74FEA520ED2073CF8012008
:103ADC0048BF0EF1010E92B242EA8E22D7E7BCF13A
:103AEC00010FD7D1B0F850C000F204421FFA8CFC81
:103AFC00624409015352CDE7B0F850C0B6B21FFA78
:103B0C008CFCD4440CF1060C3EF81CC0CCF3090C14
:103B1C009C4598BFA3EB0C02282303FB05431A64B6
:103B2C00002A52D199F82930002B3CD1B0F8502002
:103B3C0000F2044592B20B011544EA5AC2F3090291
:103B4C00EA52EA5A6FEA42426FEA524292B2EA529F
:103B5C00B0F8502000F20C4092B21044C25AC2F39A
:103B6C000902C252C25A6FEA42426FEA524292B200
:103B7C00C252204603F04BFF002E3FF417AF99F8CA
:103B8C002810226832F8213023F4E04323F040035C
:103B9C001B041B0C83F0300343F4004343F08003FD
:103BAC0022F8213056E4012BE3D1B0F850C000F2DA
:103BBC0004451FFA8CFC65440B01EA52B0F85050D6
:103BCC0000F20C40ADB22844D2E76EB930F8213087
:103BDC0023F4E04323F070031B041B0C43F4404319
:103BEC0043F0800320F82130282303FB054393F88E
:103BFC004C20012AC3D15A6CDE6B6244D3F848E0E6
:103C0C005A649A6B66449645DE6330D3AEEB020E73
:103C1C00C3F848E099F829C093B2BCF1000F43D126
:103C2C00B0F850E000F20C4C1FFA8EFEF44409017F
:103C3C003CF801E03E2ACEF3090E2CF801E023D922
:103C4C004FEA521ED2063CF8012008BF0EF1FF3E8F
:103C5C0092B242EA8E226FEA42426FEA524292B22A
:103C6C002CF80120282202FB05456A8E16E7BEF1CE
:103C7C00000F03D1624683F84CE0CBE700229A6434
:103C8C0083F84C207246C5E712B93CF80120E2E7F4
:103C9C004FEA520ED2073CF8012048BF0EF1010E3C
:103CAC0092B242EA8E22DAE7BCF1010FDAD1B0F817
:103CBC00502000F20C4C92B294440A012CF80230C1
:103CCC00D0E7460512D522682046B2F8443023F4DA
:103CDC0080631B041B0CA2F8443003F0A4FE29469D
:103CEC00204605B0BDE8F04FFFF792BB41040AD562
:103CFC002268B2F8443023F480431B041B0CA2F856
:103D0C004430FFF7ACBB820405D52268B2F84430CE
:103D1C0023F40053F1E7C30419D522682046B2F806
:103D2C00403023F004031B041B0CA2F84030B2F803
:103D3C00403023F008031B041B0CA2F8403003F0A6
:103D4C008FFE2268B2F8443023F48053D5E7070580
:103D5C0048D56846226806461146134602F12005EE
:103D6C0033F8047B9D4226F8027BF9D1B2F840303F
:103D7C009BB243F00103A2F84030B2F8403023F07C
:103D8C0001031B041B0CA2F84030B2F844305E0552
:103D9C00FBD5B2F8443023F480631B041B0CA2F84F
:103DAC00443030F8023B21F8043B8D42F9D1B2F893
:103DBC00403020469BB243F00803A2F84030B2F8E2
:103DCC00443023F400631B041B0CA2F84430B2F8FB
:103DDC0040309BB243F00403A2F8403003F030FEB5
:103DEC00FFF73DBB82050DD522682046B2F8443062
:103DFC0023F400731B041B0CA2F8443003F00FFED9
:103E0C00FFF72DBBC3057FF52AAB2268B2F844300F
:103E1C0023F4807371E700BF11F0800F70B5054675
:103E2C0001F007004FF028011AD0012400FB01110A
:103E3C0029444C70022BCB7008BF0023087008BFBC
:103E4C000B710A6195F8A832012B13D00123286855
:103E5C0085F8A83201F05EF8002085F8A80270BD44
:103E6C00002601FB00F404F5B4712C44294484F8B9
:103E7C006961DFE70220F2E711F0800F10B501F065
:103E8C00070204464FF0280113D0012302FB011155
:103E9C0001444B700A7094F8A832012B13D0012303
:103EAC00206884F8A83201F095F9002084F8A80263
:103EBC0010BD01FB02F303F5B4710144034400206F
:103ECC0083F86901E6E70220F2E770B528240026A2
:103EDC0001F007014C43051985F8681104F5B4711C
:103EEC000144C5E95F23C5F8846185F86961006800
:103EFC0001F0CCFA304670BD282301F0070103FB1A
:103F0C000100D0F88401704770B501F00705282135
:103F1C0001FB05040026C4E90F23012205FB011156
:103F2C0084F84C200144A364666484F8292084F846
:103F3C002850006801F0AAFA304670BD38B54368C5
:103F4C0001F007059D42044628D811F0800F4FF070
:103F5C0028031AD005FB0333C11801234B7001232E
:103F6C000D708B7094F8A8229A4219D0206884F8AE
:103F7C00A83201F002FA25B9206804F52C7101F081
:103F8C0073FA002084F8A80238BD00224B4303F5D5
:103F9C00B4710344014483F86921E0E70120F3E79D
:103FAC000220F1E738B5436801F00F029A4204464B
:103FBC0026D811F0800F01F007024FF0280115D020
:103FCC00012302FB011101444B7000250A708D7016
:103FDC0094F8A832012B15D00123206884F8A8325C
:103FEC0001F0EBF9284684F8A85238BD01FB02F326
:103FFC0003F5B47101440344002083F86901E4E73C
:10400C000120F2E70220F0E710B5282411F0800F10
:10401C001BBF01F0070101FB044404FB0100001964
:10402C0008BF00F5B47099B21AB90273C1800020B0
:10403C0010BD012283600273F9E770472DE9F3414B
:10404C00054638B30368DB0710D42B689F075ED492
:10405C002B68190700F195802B685A0700F1C18075
:10406C00EB69002B40F02C81002029E0904C636818
:10407C0003F00C03042B07D0636803F00C03082B2C
:10408C000AD16368DE0307D523689C03DDD56B6812
:10409C00002BDAD1012013E06B68B3F5803F12D10D
:1040AC00236843F480332360FDF786FE06462368BD
:1040BC009803CAD4FDF780FE801B6428F7D903202F
:1040CC0002B0BDE8F0819BB9236823F480332360F0
:1040DC00236823F480232360FDF76EFE06462368D5
:1040EC009903B2D5FDF768FE801B6428F7D9E6E783
:1040FC00B3F5A02F236803D143F480232360CFE7CB
:10410C0023F480332360236823F48023CBE7684CAB
:10411C00636813F00C0F07D0636803F00C03082BD3
:10412C0010D16368DA030DD423689B0702D52B6981
:10413C00012BAFD123686A6923F0F80343EAC20369
:10414C00236085E72A695B4B6AB101221A60FDF78F
:10415C0033FE064623689F07ECD4FDF72DFE801B2B
:10416C000228F7D9ABE71A60FDF726FE064623684E
:10417C0098077FF56DAFFDF71FFE801B0228F6D95F
:10418C009DE7AA694A4E4B4BE2B10122C3F8802449
:10419C00FDF712FE0446736A9B070DD54FF4FA52D5
:1041AC00454B1B68B3FBF2F3019300BF019B5A1EF6
:1041BC000192002BF9D14FE7FDF7FEFD001B022801
:1041CC00E9D97CE7C3F88024FDF7F6FD0446736A51
:1041DC009F077FF541AFFDF7EFFD001B0228F6D9D5
:1041EC006DE7334CE369D80024D40127E36943F02D
:1041FC008053E361E36903F080530093009B2F4EDF
:10420C003368D90518D5EB68012B26D1236A43F006
:10421C0001032362FDF7D0FD41F288380646236A7C
:10422C009B073FD5002F3FF41BAFE36923F080536E
:10423C00E36115E70027E2E7336843F480733360EA
:10424C00FDF7BAFD80463368DA05DCD4FDF7B4FD22
:10425C00A0EB08006428F6D931E7ABB9236A41F228
:10426C00883823F001032362236A23F004032362BA
:10427C00FDF7A2FD0646236A9807D3D5FDF79CFDF2
:10428C00801B4045F7D91AE7052B236A03D143F06D
:10429C0004032362BAE723F001032362236A23F0A9
:1042AC000403B6E7FDF788FD801B4045B7D906E748
:1042BC000010024000004242240000200070004028
:1042CC002A4C626802F00C02082A3ED00022022B13
:1042DC00274B1A662CD1FDF76FFD06462368990112
:1042EC0020D42B6AB3F5803F05D16268A96822F40B
:1042FC0000320A436260696A62680B4322F47412EA
:10430C001343012263601A4B1A66FDF755FD0546EF
:10431C0023689A013FF5A8AEFDF74EFD401B02281D
:10432C00F6D9CCE6FDF748FD801B0228D6D9C6E6A7
:10433C00FDF742FD054623689B017FF595AEFDF721
:10434C003BFD401B0228F6D9B9E6012B3FF4A2AE87
:10435C0060682B6A00F480329A427FF49BAE6B6AE1
:10436C0000F47010C01A18BF0120A9E6001002401A
:10437C00000042420D4A536803F00C01082912D187
:10438C000B48C3F38341DB03405C09D55368094AEE
:10439C00C3F340435043084AD35CB0FBF3F070477F
:1043AC00064B584370470348704700BF001002404B
:1043BC00A68C000800127A00A48C000800093D00AD
:1043CC002DE9F0410D46044610B90120BDE8F081FD
:1043DC00444A136803F007038B4228D321688E07E5
:1043EC0030D4CA0743D43F4A136803F00703AB42E7
:1043FC0065D822683C4D12F0040F6CD1130706D51A
:10440C006B68226923F4605343EAC2036B60FFF7C5
:10441C00B1FF6B68354AC3F30313D35CD840344BFC
:10442C001860344B1868FDF785FC0020CEE7136844
:10443C0023F007030B431360136803F007038B424D
:10444C00C3D1CBE7284B11F0040F1EBF5A6842F4BE
:10445C00E0625A60080742BF5A6842F460525A60E0
:10446C005A68A06822F0F00202435A60B9E7626809
:10447C001D4E012A33681AD113F4003FA5D073687E
:10448C0041F2883823F0030313437360FDF794FC67
:10449C0007467368626803F00C03B3EB820FA2D07B
:1044AC00FDF78AFCC01B4045F3D903208EE7022A96
:1044BC0002D113F0007FE1E713F0020FDEE713687F
:1044CC0023F007032B431360136803F00703AB427D
:1044DC007FF47BAF8DE76B68E16823F4E0630B43FB
:1044EC006B608BE70020024000100240008D00083A
:1044FC002400002004000020044B054A5B68C3F331
:10450C000223D35C034A1068D84070470010024065
:10451C00F88C00082400002003682DE9F3410546BF
:10452C00D80721D5364CE369D9002BD40126E36991
:10453C0043F08053E361E36903F080530193019BE3
:10454C00304F3B68DA051FD5236A6A6813F4407351
:10455C002ED1236A6A6823F44073134323621EB17D
:10456C00E36923F08053E3612A68910706D5244957
:10457C00A8684B6823F4404303434B60D30636D4FE
:10458C00002012E00026DBE73B6843F480733B60BD
:10459C00FDF712FC80463B68DB05D5D4FDF70CFC1F
:1045AC00A0EB08006428F6D9032002B0BDE8F08126
:1045BC0002F440729A42CCD00120134A236AC2F80A
:1045CC004004002023F44071DF07C2F8400421624C
:1045DC00BFD5FDF7F1FB41F288380746236A9807EF
:1045EC00B7D4FDF7E9FBC01B4045F7D9DCE7044A1B
:1045FC00E968536823F480030B435360C0E700BFA2
:10460C0000100240007000400000424270477047AA
:10461C00036810B51A69044691070ED5DA6892073B
:10462C000BD56FF002021A61012202779B699B077E
:10463C0077D000F03CFC0023237723681A695007DD
:10464C0010D5DA6851070DD56FF004021A610222F9
:10465C0022779B69204613F4407F68D000F027FC3A
:10466C000023237723681A6912070FD5DA6810071D
:10467C000CD56FF008021A6104222277DB69204600
:10468C0099075AD000F013FC0023237723681A698A
:10469C00D20610D5DA68D0060DD56FF010021A616B
:1046AC0008222277DB69204613F4407F4BD000F0C0
:1046BC00FEFB0023237723681A69D10708D5DA6833
:1046CC00D20705D56FF0010220461A6100F0CCFB31
:1046DC0023681A69100608D5DA68110605D56FF03B
:1046EC00800220461A6100F08CF823681A69520681
:1046FC0008D5DA68500605D56FF0400220461A61DD
:10470C00FFF785FF23681A69910622D5DA689206AD
:10471C001FD56FF020022046BDE810401A6100F052
:10472C006FB800F0C2FB2046FFF770FF83E700F084
:10473C00BCFB2046FFF76AFF92E700F0B6FB204671
:10474C00FFF764FFA0E700F0B0FB2046FFF75EFF29
:10475C00AFE710BD134A036890420AD0B0F1804F06
:10476C0007D0A2F59432904203D002F580629042B9
:10477C0007D14A6823F070031343CA6823F44073CB
:10478C0013434A6923F08003134303608B68C362AD
:10479C000B688362034B984204BF0B6903630123CC
:1047AC0043617047002C014010B5044630B390F8BB
:1047BC003D3003F0FF021BB980F83C2001F08AFD6C
:1047CC000223206884F83D30211DFFF7C3FF01232D
:1047DC00002084F8463084F83E3084F83F3084F86A
:1047EC00403084F8413084F8423084F8433084F807
:1047FC00443084F8453084F83D3010BD0120FCE78E
:10480C0070477047026802F10C0353E8003F23F431
:10481C0090730C3242E8003102680029F2D102F1A7
:10482C00140353E8003F23F0010302F1140C4CE88D
:10483C0000310029F3D1036B012B0BD102F10C03D6
:10484C0053E8003F23F0100302F10C0C4CE800314C
:10485C000029F3D1202380F84230002303637047F2
:10486C0090F84130202B10D189B182B1C28482845E
:10487C000023212201620168436480F84120CA6848
:10488C00184642F08002CA6070470220704701202F
:10489C00704708B50023406AC385C38401F0A8FDA6
:1048AC0008BD704790F8423007B5222B42D1816881
:1048BC000268B1F5805F836A3FD1016900293FD15D
:1048CC005268C2F3080223F8022B8362C38D013BAA
:1048DC009BB2C385002B2DD10268D16821F0200139
:1048EC00D160D16821F48071D160516921F001014E
:1048FC005161202280F842204363026B012A026836
:10490C0028D1036302F10C0353E8003F23F010039A
:10491C0002F10C0C4CE800310029F3D11368DB06D2
:10492C0005D501911368019353680193019B818D07
:10493C00FFF7B7FF03B05DF804FB39B9016929B97A
:10494C005268D2B21A70836A0133BEE7526802F021
:10495C007F02F7E701F046FDECE70000036873B552
:10496C001A6804461607D9685D6908D1960668D599
:10497C008D0666D502B0BDE87040FFF793BF05F019
:10498C00010001F4907505435BD0D60705D5CD0524
:10499C0042BF636C43F001036364530704D518B141
:1049AC00636C43F002036364960704D518B1636C1F
:1049BC0043F004036364150707D501F02003034398
:1049CC001EBF636C43F008036364636C002B32D02E
:1049DC00920604D58B0602D52046FFF763FF2668A6
:1049EC0020467369626C03F0400302F0080253EA3C
:1049FC00020522D0FFF706FF73695E0618D5226800
:104A0C0002F1140353E8003F23F04003143242E850
:104A1C0000310029F3D1E06B50B1744B4363FDF7C7
:104A2C008BFA40B1E06B436B02B0BDE870401847A5
:104A3C00204601F0DDFC02B070BD01F0D9FC6564CC
:104A4C00F9E7206B012840F09480D50640F1918065
:104A5C00C80640F18E80002201921A6801925A68B1
:104A6C000192019A5A6952064DD5E16B0A68526857
:104A7C0092B2002ADFD0A08D9042DCD9E2858A69FF
:104A8C00202A36D003F10C0252E8002F22F4807257
:104A9C0003F10C0040E800210029F3D103F11402CA
:104AAC0052E8002F22F0010203F1140040E800212B
:104ABC000029F3D103F1140252E8002F22F0400236
:104ACC0003F1140040E800210029F3D1202284F8DE
:104ADC004220216303F10C0252E8002F22F0100255
:104AEC0003F10C0040E800210029F3D1E06BFDF745
:104AFC0003FA02236363E38DA18DC91A89B22046A0
:104B0C00FFF7CFFE97E7E28DE08DA18D80B292B2D8
:104B1C00002890D0891A89B200298CD003F10C029C
:104B2C0052E8002F22F4907203F10C0545E80020A6
:104B3C000028F3D103F1140252E8002F22F00102F5
:104B4C0003F1140545E800200028F3D1202284F855
:104B5C004220206303F10C0252E8002F22F01002D5
:104B6C0003F10C0545E800200028F3D10223636310
:104B7C00C5E7160628D50D0626D594F84120212A1E
:104B8C007FF459AFA168226AB1F5805F17D1216912
:104B9C00A9B932F8021BC1F3080159602262E28CF8
:104BAC00013A92B2E284002A7FF445AFDA6822F02F
:104BBC008002DA60DA6842F04002DA603BE7511CAE
:104BCC00216212785A60EAE750067FF534AF4A0644
:104BDC007FF531AFDA68204622F04002DA602023FC
:104BEC0084F8413001F001FC25E700BF9F48000824
:104BFC0090F84030012B11D02423026880F841300A
:104C0C00D36823F00C0343F00803D360202380F80F
:104C1C004130002380F8403018467047022070471E
:104C2C0090F84030012B11D02423026880F84130D9
:104C3C00D36823F00C0343F00403D360202380F8E3
:104C4C004130002380F840301846704702207047EE
:104C5C0090F8412090F84200104370470023C28521
:104C6C00436422238285026980F8423081620368A2
:104C7C001AB1DA6842F48072DA605A69002042F0A4
:104C8C0001025A61DA6842F02002DA60704770B4AF
:104C9C0090F84260202E06D141B13AB10024046351
:104CAC0070BCFFF7DBBF022070BC70470120FBE734
:104CBC00836810B504462BB10322014698470023A4
:104CCC00C4E9023310BD00000B4B98420BD0B0F17D
:104CDC00804F0AD0A3F59433984208D003F5806333
:104CEC00984206D0FEE70020704701207047022052
:104CFC0070470320704700BF002C0140024670B57E
:104D0C00044652F8100FFFF7DFFF0546104601F07E
:104D1C0073FA0023084A04F1600642F82530E36078
:104D2C0004F1B005B54204D0103D2846FCF747FB12
:104D3C00F8E7204670BD00BF4C030020F8B50446D0
:104D4C000846FFF7C1FF236903B1FEE71B4D04F1D1
:104D5C000C0245F820200E2204F110063046C4E95E
:104D6C000C33C4E90E33C4E91033C4E916232161B2
:104D7C0084F82C30A36484F84C3084F84D30E46013
:104D8C0001F0F6F904F1600504F1B007284610357E
:104D9C00FFF78EFFBD42F9D100234FF6FF72C4E935
:104DAC000033C4E90632C4E90833A360636180238D
:104DBC003046A362BDE8F840FFF7F6BC4C03002078
:104DCC00034B186810B10430FFF722BC704700BFCA
:104DDC004C030020FFF7F4BF034B586810B10430AC
:104DEC00FFF716BC704700BF4C030020034B9868BC
:104DFC0010B10430FFF70CBC704700BF4C0300200F
:104E0C00034BD86810B10430FFF702BC704700BFE9
:104E1C004C030020F8B504460E4600F1600500F185
:104E2C00B00728461035FCF7F2FCBD42F9D100233F
:104E3C00204631462361FFF781FF2046F8BD82688A
:104E4C0010B50AB903F0F8FDC368BDE81040184767
:104E5C0008B500B9FEE701F089F90068836E13B15B
:104E6C006030FFF7ECFF08BDFFF7F2BF10B500B9DB
:104E7C00FEE7037F013B072B10D8DFE803F0041497
:104E8C000F100F0F0F12012401F070F90068063497
:104E9C0000EB041083680BB1FFF7D1FF10BD0324A6
:104EAC00F2E70424F0E70224EEE7FFF7DFBFFFF799
:104EBC00DDBF84B001A880E80E0004B0002070476C
:104ECC0003464FF43F420020A3F84400A3F84020CF
:104EDC007047B0F8403023F47C535B045B0CA0F8B3
:104EEC004030002070470020704784B010B5044655
:104EFC0003A880E80E0000200123A4F84030A4F899
:104F0C004000A4F84400A4F85000BDE8104004B0E0
:104F1C0070470000F0B50A78CD7830F8224003468F
:104F2C0024F4EC4424F070042404240C032D03D842
:104F3C00DFE805F041494745012048F2800634433B
:104F4C0023F8224033F822409F4FA4B23C40144334
:104F5C00344323F822400C7B03EB021C002C40F062
:104F6C008D80CC884E78640864007EB3B3F8501002
:104F7C0089B26144A1F8004433F82210490609D5DE
:104F8C0033F8221089B2394041F4004141F0C0019C
:104F9C0023F8221033F822108C4C89B2012D01EA2F
:104FAC00040101D081F0200141F4004141F0800165
:104FBC0023F822104CE0284644F40074BDE744F476
:104FCC00C0640020B9E744F48064FAE7B3F85050A9
:104FDC000969ADB26544A5F80844B3F850403E29C0
:104FEC00A4B26444B4F80C54C5F30905A4F80C54E9
:104FFC002FD94D09CE06B4F80C1408BF05F1FF35B6
:10500C0089B241EA85216FEA41416FEA514189B287
:10501C00A4F80C1433F822104F040DD533F82210D9
:10502C0021F4E04121F070010904090C41F44041E4
:10503C0041F0800123F82210654CC2B91A8892B253
:10504C00224082F4405242F4004242F080021A8024
:10505C00F0BD11B9B4F80C14D5E74D08C907B4F874
:10506C000C1448BF013589B241EA8521CFE733F8EA
:10507C00221089B2214081F4005195E7022D33F8BA
:10508C0022405BD1A4B23C4044F4014444F080047F
:10509C0023F82240B3F850400E89A4B27608644439
:1050AC007600A4F800644E89B3F850407608A4B298
:1050BC0064447600A4F808644978002948D133F890
:1050CC0022104E040DD533F8221021F4E04121F0CA
:1050DC0070010904090C41F4404141F0800123F8AE
:1050EC00221033F822104D060DD533F8221021F47E
:1050FC00E04121F070010904090C41F4004141F038
:10510C00C00123F8221048F2800433F8221021F455
:10511C00804121F070010904090C81F440512143B4
:10512C0023F8221033F8221021F4E04121F0400141
:10513C000904090C0C4323F8224089E724F4E244C7
:10514C0024F070042404240C264323F82260A1E7E5
:10515C0033F822104C040DD533F8221021F4E04121
:10516C0021F070010904090C41F4404141F0800127
:10517C0023F8221033F8221049060DD533F82210EB
:10518C0021F4E04121F070010904090C41F40041C3
:10519C0041F0C00123F8221033F822100B4C89B2D5
:1051AC002140012D18BF81F0200141F4004141F054
:1051BC00800123F8221033F8221021F4804121F0D1
:1051CC0070010904090CEFE68F8FFFFFBF8FFFFF03
:1051DC008FBFFFFF4A780B78097BD9BB0AB330F835
:1051EC00232051060DD530F8232022F4E04222F082
:1051FC0070021204120C42F4004242F0C00220F879
:10520C00232030F8232022F4E04222F04002120442
:10521C00120C42F4004242F0800220F823200020BD
:10522C00704730F8232052040DD530F8232022F497
:10523C00E04222F070021204120C42F4404242F09E
:10524C00800220F8232030F8232022F4804222F020
:10525C007002DCE7002A4AD130F8232051040DD526
:10526C0030F8232022F4E04222F070021204120CD7
:10527C0042F4404242F0800220F8232030F82320F0
:10528C0052060DD530F8232022F4E04222F07002B1
:10529C001204120C42F4004242F0C00220F8232007
:1052AC0048F2800130F8232022F4E04222F0700210
:1052BC001204120C42F4004242F0C00220F82320E7
:1052CC0030F8232022F4804222F070021204120CD7
:1052DC000A4320F8232030F8232022F4E04222F065
:1052EC0040021204120C114320F8231097E730F8F7
:1052FC00232051040DD530F8232022F4E04222F073
:10530C0070021204120C42F4404242F0800220F867
:10531C00232030F8232052060DD530F8232022F418
:10532C00E04222F070021204120C42F4004242F0ED
:10533C00C00220F8232048F2800130F8232022F408
:10534C00E04222F070021204120C42F4404242F08D
:10535C00800220F8232030F8232022F4E04222F0AF
:10536C0040021204120C0A4320F8232030F82320A8
:10537C0022F4804222F07002B3E74B780A788BB1AA
:10538C0030F8223023F4E04323F040031B041B0CC1
:10539C0083F0100343F4004343F0800320F82230E1
:1053AC000020704730F8223023F4804323F0700340
:1053BC001B041B0C83F48053ECE70B7B3BBB4B783F
:1053CC000A7833B330F822305B060DD530F8223032
:1053DC0023F4E04323F070031B041B0C43F4004341
:1053EC0043F0C00320F82230CB78012B0FD030F8DB
:1053FC00223023F4E04323F040031B041B0C83F006
:10540C00200343F4004343F0800320F822300020B3
:10541C00704730F822305B040DD530F8223023F47D
:10542C00E04323F070031B041B0C43F4404343F094
:10543C00800320F8223030F8223023F4804323F00C
:10544C0070031B041B0C83F44053DAE711B980235F
:10545C00A0F84C30002070470020704700207047A7
:10546C00B0F8440080B270470020704700EB420057
:10547C00013300F580605B0800EB8303834200D1AD
:10548C00704731F8022B20F8042BF7E72DE9F04791
:10549C004B780446012B0D460A7B40F01881D1F85D
:1054AC0010908F6949694F4528BF4F460ABBBFB260
:1054BC00EA883B46FFF7DAFFB4F85000297880B24F
:1054CC0004F20442090102448F522A7834F8223043
:1054DC0023F4E04323F040031B041B0C83F0300344
:1054EC00002043F4004343F0800324F82230BDE84D
:1054FC00F087EB7895F800E0022B2E6A4FEA0E1C31
:10550C0040F0D080B14530F82E2080F0B48022F4E9
:10551C00E04222F070021204120C42F4014242F0FA
:10552C00800220F82E2030F82E80B0F850E0F61BC8
:10553C0018F040082E6201EB070ABBB21FFA8EFE70
:10554C004ED000F20C42724422F80C306A89FFF7FC
:10555C008DFFB14536BFF31B00233E466A782B62A4
:10556C00C5F814A0B3B27ABBB4F85020287892B224
:10557C0004F2044100011144425A3E2EC2F30902C6
:10558C00425214D9425A7709F60608BF07F1FF3781
:10559C0092B242EA87226FEA42426FEA524292B2D8
:1055AC0042522A8951462046FFF760FF8DE70EB91B
:1055BC00425AF0E7F207425A4FEA560748BF013702
:1055CC0092B242EA8722EAE7012AEAD1B4F8500003
:1055DC00297880B204F20442090102448B52E0E7BC
:1055EC0000F20442724422F80C302A89FFF73EFF85
:1055FC00B14536BFF31B43463E466A782B62C5F86D
:10560C0014A0B3B25ABBB4F85020287892B204F26A
:10561C000C4100011144425A3E2EC2F3090242527F
:10562C0010D9425A7709F60608BF07F1FF3792B234
:10563C0042EA87226FEA42426FEA524292B24252E7
:10564C006A89AFE70EB9425AF4E7F207425A4FEAB9
:10565C00560748BF013792B242EA8722EEE7012A89
:10566C00EED1B4F85000297880B204F20C42090152
:10567C0002448B52E4E722F4E24222F0700212045C
:10568C00120C42F4004242F0800220F82E20B0F8B6
:10569C00503000F204429BB21A44B3B222F80C30E0
:1056AC002A8981E7F61B30F82E202E62B0F8506064
:1056BC00BBB25706B6B206D500F20C42324422F801
:1056CC000C306A8970E700F204423244E6E7002AA3
:1056DC003BD18B690969B0F850008B4284BF5A1AD0
:1056EC000B462978AA6180B204F20C4209010244EB
:1056FC00885A3E2BC0F3090088521AD95809DE0685
:10570C008B5A08BF00F1FF309BB243EA80236FEA4B
:10571C0043436FEA53439BB28B522A7834F82230BE
:10572C0023F4804323F070031B041B0C83F44053BD
:10573C00D6E60BB98B5AEAE75808DB078B5A48BFF9
:10574C0001309BB243EA8023E5E7CA78022A70D184
:10575C00002B38D1B0F850200B7892B200F20440F4
:10576C001B011044C25AC2F30902C2520A693E2AF2
:10577C0046D9C15A5609D70608BF06F1FF3689B279
:10578C0041EA86216FEA41416FEA514189B2C15227
:10579C00B4F8500004F20C4180B20144C85A3E2ABD
:1057AC00C0F30900C85238D95009D706CA5A08BFE5
:1057BC0000F1FF3092B242EA80226FEA42426FEA75
:1057CC00524292B2CA52EB69002BA6D044F240036B
:1057DC002A7834F8221003EA01008B4301D0002808
:1057EC009BD134F8223023F4E04323F070031B04E4
:1057FC001B0C43F4004343F0C00324F822308CE725
:10580C000AB9C15ABEE7D107C15A4FEA520648BF7E
:10581C00013689B241EA8621B8E70AB9CA5ACCE7FF
:10582C005008D607CA5A48BF013092B242EA8022C9
:10583C00C7E7012A5DD18A6909698A4294BF0020B1
:10584C00501AA86188BF0A46002B7FF466AFB4F8E3
:10585C0050102B7889B204F204401B010844C15A41
:10586C003E2AC1F30901C1522BD9D106C15A4FEAC4
:10587C00521608BF06F1FF3689B241EA86216FEA5B
:10588C0041416FEA514189B2C152B4F8500004F25F
:10589C000C4180B20144C85A3E2AC0F30900C852D8
:1058AC001BD95009D606CA5A08BF00F1FF3092B274
:1058BC0042EA80226FEA42426FEA524292B2CA52E4
:1058CC002BE70AB9C15ADAE7C15A5608D70748BFBD
:1058DC00013689B241EA8621D5E70AB9CA5AE9E705
:1058EC005008D207CA5A48BF013092B242EA80220D
:1058FC00E4E70120FBE500EB4200F0B500F5806029
:10590C005D080C4607462E46023436B9DB0744BF09
:10591C0030F8253001F81530F0BD37F8042B013E76
:10592C0092B204F8022C120A04F8012CECE702F0F3
:10593C00A7BE02F0ADBE000086B0042841D8DFE857
:10594C0000F003101C2834001F4B20489A6942F0C9
:10595C0004029A619B6903F004030193019B06B056
:10596C007047194B1A489A6942F008029A619B6970
:10597C0003F008030293029BF1E7134B15489A6955
:10598C0042F010029A619B6903F010030393039B8E
:10599C00E5E70D4B10489A6942F020029A619B6929
:1059AC0003F020030493049BD9E7074B0B489A6937
:1059BC0042F040029A619B6903F040030593059BFA
:1059CC00CDE70020CBE700BF0010024000080140EB
:1059DC00000C01400010014000140140001801406F
:1059EC00F8B51449074600F079FBFFF76DF9124E34
:1059FC00044656F8203073B9B020FFF798FF0D49D4
:105A0C000546384600F06AFB01462846FFF702FAC5
:105A1C0056F824301D6056F824301C6844B12046DA
:105A2C00FFF76CF92046BDE8F840B021FFF781BFC5
:105A3C00F8BD00BF148E00084C03002037B54FF0A2
:105A4C00E025FCF7B9F9AB6904460093FCF7B4F90F
:105A5C00AB698442019369694FF47A7301F10101D6
:105A6C0008D0019A8A1A5A43B2FBF1F203FB0020C8
:105A7C0003B030BD009A8A1A5A43B2FBF1F203FB11
:105A8C000420F5E7FCF798B9704708B5FCF788F9DE
:105A9C00FCF71DFAFFF7F8FF08BD70470F4B84B0F9
:105AAC00DA6942F08052DA61DA6902F080520192CE
:105ABC00019A9A6942F001029A619A6902F0010214
:105ACC000292029A5A6942F040025A615B6903F0F1
